{
  "contractName": "MedicineSupplyChain",
  "abi": [
    {
      "anonymous": false,
      "inputs": [
        {
          "indexed": false,
          "internalType": "string",
          "name": "name",
          "type": "string"
        },
        {
          "indexed": false,
          "internalType": "uint256",
          "name": "quantity",
          "type": "uint256"
        },
        {
          "indexed": false,
          "internalType": "uint256",
          "name": "timestamp",
          "type": "uint256"
        }
      ],
      "name": "MedicineBoughtByCustomer",
      "type": "event"
    },
    {
      "anonymous": false,
      "inputs": [
        {
          "indexed": false,
          "internalType": "string",
          "name": "name",
          "type": "string"
        },
        {
          "indexed": false,
          "internalType": "uint256",
          "name": "quantity",
          "type": "uint256"
        },
        {
          "indexed": false,
          "internalType": "uint256",
          "name": "timestamp",
          "type": "uint256"
        }
      ],
      "name": "MedicineBoughtByRetailer",
      "type": "event"
    },
    {
      "anonymous": false,
      "inputs": [
        {
          "indexed": false,
          "internalType": "string",
          "name": "name",
          "type": "string"
        },
        {
          "indexed": false,
          "internalType": "uint256",
          "name": "quantity",
          "type": "uint256"
        },
        {
          "indexed": false,
          "internalType": "uint256",
          "name": "timestamp",
          "type": "uint256"
        }
      ],
      "name": "MedicineRequested",
      "type": "event"
    },
    {
      "anonymous": false,
      "inputs": [
        {
          "indexed": false,
          "internalType": "string",
          "name": "name",
          "type": "string"
        },
        {
          "indexed": false,
          "internalType": "uint256",
          "name": "quantity",
          "type": "uint256"
        },
        {
          "indexed": false,
          "internalType": "uint256",
          "name": "timestamp",
          "type": "uint256"
        }
      ],
      "name": "NewMedicineAdded",
      "type": "event"
    },
    {
      "inputs": [
        {
          "internalType": "uint256",
          "name": "",
          "type": "uint256"
        }
      ],
      "name": "custArr",
      "outputs": [
        {
          "internalType": "string",
          "name": "name",
          "type": "string"
        },
        {
          "internalType": "uint256",
          "name": "quantity",
          "type": "uint256"
        },
        {
          "internalType": "uint256",
          "name": "timestamp",
          "type": "uint256"
        }
      ],
      "stateMutability": "view",
      "type": "function",
      "constant": true
    },
    {
      "inputs": [
        {
          "internalType": "uint256",
          "name": "",
          "type": "uint256"
        }
      ],
      "name": "newMedArr",
      "outputs": [
        {
          "internalType": "string",
          "name": "name",
          "type": "string"
        },
        {
          "internalType": "uint256",
          "name": "quantity",
          "type": "uint256"
        },
        {
          "internalType": "uint256",
          "name": "timestamp",
          "type": "uint256"
        }
      ],
      "stateMutability": "view",
      "type": "function",
      "constant": true
    },
    {
      "inputs": [
        {
          "internalType": "uint256",
          "name": "",
          "type": "uint256"
        }
      ],
      "name": "purchasedMedArr",
      "outputs": [
        {
          "internalType": "string",
          "name": "name",
          "type": "string"
        },
        {
          "internalType": "uint256",
          "name": "quantity",
          "type": "uint256"
        },
        {
          "internalType": "uint256",
          "name": "timestamp",
          "type": "uint256"
        }
      ],
      "stateMutability": "view",
      "type": "function",
      "constant": true
    },
    {
      "inputs": [
        {
          "internalType": "uint256",
          "name": "",
          "type": "uint256"
        }
      ],
      "name": "reqArr",
      "outputs": [
        {
          "internalType": "string",
          "name": "name",
          "type": "string"
        },
        {
          "internalType": "uint256",
          "name": "quantity",
          "type": "uint256"
        },
        {
          "internalType": "uint256",
          "name": "timestamp",
          "type": "uint256"
        }
      ],
      "stateMutability": "view",
      "type": "function",
      "constant": true
    },
    {
      "inputs": [
        {
          "internalType": "string",
          "name": "medName",
          "type": "string"
        },
        {
          "internalType": "uint256",
          "name": "medQuant",
          "type": "uint256"
        }
      ],
      "name": "addNewMed",
      "outputs": [],
      "stateMutability": "nonpayable",
      "type": "function"
    },
    {
      "inputs": [],
      "name": "getNewMed",
      "outputs": [
        {
          "components": [
            {
              "internalType": "string",
              "name": "name",
              "type": "string"
            },
            {
              "internalType": "uint256",
              "name": "quantity",
              "type": "uint256"
            },
            {
              "internalType": "uint256",
              "name": "timestamp",
              "type": "uint256"
            }
          ],
          "internalType": "struct MedicineSupplyChain.Medicine[]",
          "name": "",
          "type": "tuple[]"
        }
      ],
      "stateMutability": "view",
      "type": "function",
      "constant": true
    },
    {
      "inputs": [
        {
          "internalType": "string",
          "name": "medName",
          "type": "string"
        },
        {
          "internalType": "uint256",
          "name": "medQuant",
          "type": "uint256"
        }
      ],
      "name": "buyNewMed",
      "outputs": [],
      "stateMutability": "nonpayable",
      "type": "function"
    },
    {
      "inputs": [],
      "name": "viewAllMed",
      "outputs": [
        {
          "components": [
            {
              "internalType": "string",
              "name": "name",
              "type": "string"
            },
            {
              "internalType": "uint256",
              "name": "quantity",
              "type": "uint256"
            },
            {
              "internalType": "uint256",
              "name": "timestamp",
              "type": "uint256"
            }
          ],
          "internalType": "struct MedicineSupplyChain.Medicine[]",
          "name": "",
          "type": "tuple[]"
        }
      ],
      "stateMutability": "view",
      "type": "function",
      "constant": true
    },
    {
      "inputs": [
        {
          "internalType": "string",
          "name": "medName",
          "type": "string"
        },
        {
          "internalType": "uint256",
          "name": "medQuant",
          "type": "uint256"
        }
      ],
      "name": "buyMed",
      "outputs": [],
      "stateMutability": "nonpayable",
      "type": "function"
    },
    {
      "inputs": [
        {
          "internalType": "string",
          "name": "medName",
          "type": "string"
        },
        {
          "internalType": "uint256",
          "name": "medQuant",
          "type": "uint256"
        }
      ],
      "name": "requestMed",
      "outputs": [],
      "stateMutability": "nonpayable",
      "type": "function"
    },
    {
      "inputs": [],
      "name": "viewRequestedMed",
      "outputs": [
        {
          "components": [
            {
              "internalType": "string",
              "name": "name",
              "type": "string"
            },
            {
              "internalType": "uint256",
              "name": "quantity",
              "type": "uint256"
            },
            {
              "internalType": "uint256",
              "name": "timestamp",
              "type": "uint256"
            }
          ],
          "internalType": "struct MedicineSupplyChain.Medicine[]",
          "name": "",
          "type": "tuple[]"
        }
      ],
      "stateMutability": "view",
      "type": "function",
      "constant": true
    },
    {
      "inputs": [],
      "name": "viewPurchasedMed",
      "outputs": [
        {
          "components": [
            {
              "internalType": "string",
              "name": "name",
              "type": "string"
            },
            {
              "internalType": "uint256",
              "name": "quantity",
              "type": "uint256"
            },
            {
              "internalType": "uint256",
              "name": "timestamp",
              "type": "uint256"
            }
          ],
          "internalType": "struct MedicineSupplyChain.Medicine[]",
          "name": "",
          "type": "tuple[]"
        }
      ],
      "stateMutability": "view",
      "type": "function",
      "constant": true
    }
  ],
  "bytecode": "0x608060405234801561001057600080fd5b506122b5806100206000396000f3fe608060405234801561001057600080fd5b50600436106100b45760003560e01c8063664ff29c11610071578063664ff29c146101a7578063a4cc3c5d146101c5578063d94cfc04146101e1578063e172cf0314610213578063ee7556101461022f578063f3bb64391461024d576100b4565b806308abb9af146100b95780631d4ddf5c146100eb5780633c2a4723146101095780633c997e221461013b57806347338fe1146101575780635e4f2d1d14610175575b600080fd5b6100d360048036038101906100ce9190611c3c565b610269565b6040516100e293929190611f34565b60405180910390f35b6100f361032b565b6040516101009190611f12565b60405180910390f35b610123600480360381019061011e9190611c3c565b610430565b60405161013293929190611f34565b60405180910390f35b61015560048036038101906101509190611be8565b6104f2565b005b61015f610800565b60405161016c9190611f12565b60405180910390f35b61018f600480360381019061018a9190611c3c565b610905565b60405161019e93929190611f34565b60405180910390f35b6101af6109c7565b6040516101bc9190611f12565b60405180910390f35b6101df60048036038101906101da9190611be8565b610acc565b005b6101fb60048036038101906101f69190611c3c565b610f36565b60405161020a93929190611f34565b60405180910390f35b61022d60048036038101906102289190611be8565b610ff8565b005b6102376115e8565b6040516102449190611f12565b60405180910390f35b61026760048036038101906102629190611be8565b6116ed565b005b6003818154811061027957600080fd5b906000526020600020906003020160009150905080600001805461029c9061214f565b80601f01602080910402602001604051908101604052809291908181526020018280546102c89061214f565b80156103155780601f106102ea57610100808354040283529160200191610315565b820191906000526020600020905b8154815290600101906020018083116102f857829003601f168201915b5050505050908060010154908060020154905083565b60606002805480602002602001604051908101604052809291908181526020016000905b8282101561042757838290600052602060002090600302016040518060600160405290816000820180546103829061214f565b80601f01602080910402602001604051908101604052809291908181526020018280546103ae9061214f565b80156103fb5780601f106103d0576101008083540402835291602001916103fb565b820191906000526020600020905b8154815290600101906020018083116103de57829003601f168201915b50505050508152602001600182015481526020016002820154815250508152602001906001019061034f565b50505050905090565b6002818154811061044057600080fd5b90600052602060002090600302016000915090508060000180546104639061214f565b80601f016020809104026020016040519081016040528092919081815260200182805461048f9061214f565b80156104dc5780601f106104b1576101008083540402835291602001916104dc565b820191906000526020600020905b8154815290600101906020018083116104bf57829003601f168201915b5050505050908060010154908060020154905083565b6000805b60038054905081101561074057836040516020016105149190611ee4565b6040516020818303038152906040528051906020012060038281548110610564577f4e487b7100000000000000000000000000000000000000000000000000000000600052603260045260246000fd5b90600052602060002090600302016000016040516020016105859190611efb565b60405160208183030381529060405280519060200120141561072d5782600382815481106105dc577f4e487b7100000000000000000000000000000000000000000000000000000000600052603260045260246000fd5b906000526020600020906003020160010160008282546105fc9190612079565b92505081905550426003828154811061063e577f4e487b7100000000000000000000000000000000000000000000000000000000600052603260045260246000fd5b9060005260206000209060030201600201819055507f312021b7bb3cfda58efc7b0f3ffd44e7bc32fb8910cda8c45234f77d1baa853c84600383815481106106af577f4e487b7100000000000000000000000000000000000000000000000000000000600052603260045260246000fd5b906000526020600020906003020160010154600384815481106106fb577f4e487b7100000000000000000000000000000000000000000000000000000000600052603260045260246000fd5b90600052602060002090600302016002015460405161071c93929190611f34565b60405180910390a160019150610740565b808061073890612181565b9150506104f6565b50806107fb576003604051806060016040528085815260200184815260200142815250908060018154018082558091505060019003906000526020600020906003020160009091909190915060008201518160000190805190602001906107a89291906119fb565b50602082015181600101556040820151816002015550507f312021b7bb3cfda58efc7b0f3ffd44e7bc32fb8910cda8c45234f77d1baa853c8383426040516107f293929190611f34565b60405180910390a15b505050565b60606003805480602002602001604051908101604052809291908181526020016000905b828210156108fc57838290600052602060002090600302016040518060600160405290816000820180546108579061214f565b80601f01602080910402602001604051908101604052809291908181526020018280546108839061214f565b80156108d05780601f106108a5576101008083540402835291602001916108d0565b820191906000526020600020905b8154815290600101906020018083116108b357829003601f168201915b505050505081526020016001820154815260200160028201548152505081526020019060010190610824565b50505050905090565b6000818154811061091557600080fd5b90600052602060002090600302016000915090508060000180546109389061214f565b80601f01602080910402602001604051908101604052809291908181526020018280546109649061214f565b80156109b15780601f10610986576101008083540402835291602001916109b1565b820191906000526020600020905b81548152906001019060200180831161099457829003601f168201915b5050505050908060010154908060020154905083565b60606001805480602002602001604051908101604052809291908181526020016000905b82821015610ac35783829060005260206000209060030201604051806060016040529081600082018054610a1e9061214f565b80601f0160208091040260200160405190810160405280929190818152602001828054610a4a9061214f565b8015610a975780601f10610a6c57610100808354040283529160200191610a97565b820191906000526020600020905b815481529060010190602001808311610a7a57829003601f168201915b5050505050815260200160018201548152602001600282015481525050815260200190600101906109eb565b50505050905090565b6000805b600180549050811015610ef05783604051602001610aee9190611ee4565b6040516020818303038152906040528051906020012060018281548110610b3e577f4e487b7100000000000000000000000000000000000000000000000000000000600052603260045260246000fd5b9060005260206000209060030201600001604051602001610b5f9190611efb565b60405160208183030381529060405280519060200120148015610bcd57508260018281548110610bb8577f4e487b7100000000000000000000000000000000000000000000000000000000600052603260045260246000fd5b90600052602060002090600302016001015410155b15610edd578260018281548110610c0d577f4e487b7100000000000000000000000000000000000000000000000000000000600052603260045260246000fd5b90600052602060002090600302016001016000828254610c2d91906120cf565b925050819055504260018281548110610c6f577f4e487b7100000000000000000000000000000000000000000000000000000000600052603260045260246000fd5b906000526020600020906003020160020181905550600060018281548110610cc0577f4e487b7100000000000000000000000000000000000000000000000000000000600052603260045260246000fd5b9060005260206000209060030201600101541415610e20576001808080549050610cea91906120cf565b81548110610d21577f4e487b7100000000000000000000000000000000000000000000000000000000600052603260045260246000fd5b906000526020600020906003020160018281548110610d69577f4e487b7100000000000000000000000000000000000000000000000000000000600052603260045260246000fd5b90600052602060002090600302016000820181600001908054610d8b9061214f565b610d96929190611a81565b5060018201548160010155600282015481600201559050506001805480610de6577f4e487b7100000000000000000000000000000000000000000000000000000000600052603160045260246000fd5b600190038181906000526020600020906003020160008082016000610e0b9190611b0e565b60018201600090556002820160009055505090555b600260405180606001604052808681526020018581526020014281525090806001815401808255809150506001900390600052602060002090600302016000909190919091506000820151816000019080519060200190610e829291906119fb565b50602082015181600101556040820151816002015550507f05256d8a294e78285b2c9c9c57a182083245c2730d2bfda374f864ee7e71cd43848442604051610ecc93929190611f34565b60405180910390a160019150610ef0565b8080610ee890612181565b915050610ad0565b5080610f31576040517f08c379a0000000000000000000000000000000000000000000000000000000008152600401610f2890611f72565b60405180910390fd5b505050565b60018181548110610f4657600080fd5b9060005260206000209060030201600091509050806000018054610f699061214f565b80601f0160208091040260200160405190810160405280929190818152602001828054610f959061214f565b8015610fe25780601f10610fb757610100808354040283529160200191610fe2565b820191906000526020600020905b815481529060010190602001808311610fc557829003601f168201915b5050505050908060010154908060020154905083565b6000805b6000805490508110156115a2578360405160200161101a9190611ee4565b604051602081830303815290604052805190602001206000828154811061106a577f4e487b7100000000000000000000000000000000000000000000000000000000600052603260045260246000fd5b906000526020600020906003020160000160405160200161108b9190611efb565b604051602081830303815290604052805190602001201480156110f9575082600082815481106110e4577f4e487b7100000000000000000000000000000000000000000000000000000000600052603260045260246000fd5b90600052602060002090600302016001015410155b1561158f578260008281548110611139577f4e487b7100000000000000000000000000000000000000000000000000000000600052603260045260246000fd5b9060005260206000209060030201600101600082825461115991906120cf565b92505081905550426000828154811061119b577f4e487b7100000000000000000000000000000000000000000000000000000000600052603260045260246000fd5b90600052602060002090600302016002018190555060008082815481106111eb577f4e487b7100000000000000000000000000000000000000000000000000000000600052603260045260246000fd5b906000526020600020906003020160010154141561134d576000600160008054905061121791906120cf565b8154811061124e577f4e487b7100000000000000000000000000000000000000000000000000000000600052603260045260246000fd5b906000526020600020906003020160008281548110611296577f4e487b7100000000000000000000000000000000000000000000000000000000600052603260045260246000fd5b906000526020600020906003020160008201816000019080546112b89061214f565b6112c3929190611a81565b5060018201548160010155600282015481600201559050506000805480611313577f4e487b7100000000000000000000000000000000000000000000000000000000600052603160045260246000fd5b6001900381819060005260206000209060030201600080820160006113389190611b0e565b60018201600090556002820160009055505090555b6000805b6001805490508110156114ca578560405160200161136f9190611ee4565b60405160208183030381529060405280519060200120600182815481106113bf577f4e487b7100000000000000000000000000000000000000000000000000000000600052603260045260246000fd5b90600052602060002090600302016000016040516020016113e09190611efb565b6040516020818303038152906040528051906020012014156114b7578460018281548110611437577f4e487b7100000000000000000000000000000000000000000000000000000000600052603260045260246000fd5b906000526020600020906003020160010160008282546114579190612079565b925050819055504260018281548110611499577f4e487b7100000000000000000000000000000000000000000000000000000000600052603260045260246000fd5b906000526020600020906003020160020181905550600191506114ca565b80806114c290612181565b915050611351565b508061154a576001604051806060016040528087815260200186815260200142815250908060018154018082558091505060019003906000526020600020906003020160009091909190915060008201518160000190805190602001906115329291906119fb565b50602082015181600101556040820151816002015550505b7faa533db7de572c0c8c8d5f424ba367ba73568f7267fc53f787014106cc95647085854260405161157d93929190611f34565b60405180910390a160019250506115a2565b808061159a90612181565b915050610ffc565b50806115e3576040517f08c379a00000000000000000000000000000000000000000000000000000000081526004016115da90611f72565b60405180910390fd5b505050565b60606000805480602002602001604051908101604052809291908181526020016000905b828210156116e4578382906000526020600020906003020160405180606001604052908160008201805461163f9061214f565b80601f016020809104026020016040519081016040528092919081815260200182805461166b9061214f565b80156116b85780601f1061168d576101008083540402835291602001916116b8565b820191906000526020600020905b81548152906001019060200180831161169b57829003601f168201915b50505050508152602001600182015481526020016002820154815250508152602001906001019061160c565b50505050905090565b6000805b60008054905081101561193b578360405160200161170f9190611ee4565b604051602081830303815290604052805190602001206000828154811061175f577f4e487b7100000000000000000000000000000000000000000000000000000000600052603260045260246000fd5b90600052602060002090600302016000016040516020016117809190611efb565b6040516020818303038152906040528051906020012014156119285782600082815481106117d7577f4e487b7100000000000000000000000000000000000000000000000000000000600052603260045260246000fd5b906000526020600020906003020160010160008282546117f79190612079565b925050819055504260008281548110611839577f4e487b7100000000000000000000000000000000000000000000000000000000600052603260045260246000fd5b9060005260206000209060030201600201819055507f90524842f2b2364f914082b66f222c30470c78ffc292c8afaa91c836db20f78184600083815481106118aa577f4e487b7100000000000000000000000000000000000000000000000000000000600052603260045260246000fd5b906000526020600020906003020160010154600084815481106118f6577f4e487b7100000000000000000000000000000000000000000000000000000000600052603260045260246000fd5b90600052602060002090600302016002015460405161191793929190611f34565b60405180910390a16001915061193b565b808061193390612181565b9150506116f1565b50806119f6576000604051806060016040528085815260200184815260200142815250908060018154018082558091505060019003906000526020600020906003020160009091909190915060008201518160000190805190602001906119a39291906119fb565b50602082015181600101556040820151816002015550507f90524842f2b2364f914082b66f222c30470c78ffc292c8afaa91c836db20f7818383426040516119ed93929190611f34565b60405180910390a15b505050565b828054611a079061214f565b90600052602060002090601f016020900481019282611a295760008555611a70565b82601f10611a4257805160ff1916838001178555611a70565b82800160010185558215611a70579182015b82811115611a6f578251825591602001919060010190611a54565b5b509050611a7d9190611b4e565b5090565b828054611a8d9061214f565b90600052602060002090601f016020900481019282611aaf5760008555611afd565b82601f10611ac05780548555611afd565b82800160010185558215611afd57600052602060002091601f016020900482015b82811115611afc578254825591600101919060010190611ae1565b5b509050611b0a9190611b4e565b5090565b508054611b1a9061214f565b6000825580601f10611b2c5750611b4b565b601f016020900490600052602060002090810190611b4a9190611b4e565b5b50565b5b80821115611b67576000816000905550600101611b4f565b5090565b6000611b7e611b7984611fc3565b611f92565b905082815260208101848484011115611b9657600080fd5b611ba184828561210d565b509392505050565b600082601f830112611bba57600080fd5b8135611bca848260208601611b6b565b91505092915050565b600081359050611be281612268565b92915050565b60008060408385031215611bfb57600080fd5b600083013567ffffffffffffffff811115611c1557600080fd5b611c2185828601611ba9565b9250506020611c3285828601611bd3565b9150509250929050565b600060208284031215611c4e57600080fd5b6000611c5c84828501611bd3565b91505092915050565b6000611c718383611e76565b905092915050565b6000611c8482612018565b611c8e818561203b565b935083602082028501611ca085611ff3565b8060005b85811015611cdc5784840389528151611cbd8582611c65565b9450611cc88361202e565b925060208a01995050600181019050611ca4565b50829750879550505050505092915050565b6000611cf982612023565b611d03818561204c565b9350611d1381856020860161211c565b611d1c81612257565b840191505092915050565b6000611d3282612023565b611d3c818561205d565b9350611d4c81856020860161211c565b611d5581612257565b840191505092915050565b6000611d6b82612023565b611d75818561206e565b9350611d8581856020860161211c565b80840191505092915050565b60008154611d9e8161214f565b611da8818661206e565b94506001821660008114611dc35760018114611dd457611e07565b60ff19831686528186019350611e07565b611ddd85612003565b60005b83811015611dff57815481890152600182019150602081019050611de0565b838801955050505b50505092915050565b6000611e1d602b8361205d565b91507f4d65646963696e65206e6f7420666f756e64206f7220696e737566666963696560008301527f6e74207175616e746974790000000000000000000000000000000000000000006020830152604082019050919050565b60006060830160008301518482036000860152611e938282611cee565b9150506020830151611ea86020860182611ec6565b506040830151611ebb6040860182611ec6565b508091505092915050565b611ecf81612103565b82525050565b611ede81612103565b82525050565b6000611ef08284611d60565b915081905092915050565b6000611f078284611d91565b915081905092915050565b60006020820190508181036000830152611f2c8184611c79565b905092915050565b60006060820190508181036000830152611f4e8186611d27565b9050611f5d6020830185611ed5565b611f6a6040830184611ed5565b949350505050565b60006020820190508181036000830152611f8b81611e10565b9050919050565b6000604051905081810181811067ffffffffffffffff82111715611fb957611fb8612228565b5b8060405250919050565b600067ffffffffffffffff821115611fde57611fdd612228565b5b601f19601f8301169050602081019050919050565b6000819050602082019050919050565b60008190508160005260206000209050919050565b600081519050919050565b600081519050919050565b6000602082019050919050565b600082825260208201905092915050565b600082825260208201905092915050565b600082825260208201905092915050565b600081905092915050565b600061208482612103565b915061208f83612103565b9250827fffffffffffffffffffffffffffffffffffffffffffffffffffffffffffffffff038211156120c4576120c36121ca565b5b828201905092915050565b60006120da82612103565b91506120e583612103565b9250828210156120f8576120f76121ca565b5b828203905092915050565b6000819050919050565b82818337600083830152505050565b60005b8381101561213a57808201518184015260208101905061211f565b83811115612149576000848401525b50505050565b6000600282049050600182168061216757607f821691505b6020821081141561217b5761217a6121f9565b5b50919050565b600061218c82612103565b91507fffffffffffffffffffffffffffffffffffffffffffffffffffffffffffffffff8214156121bf576121be6121ca565b5b600182019050919050565b7f4e487b7100000000000000000000000000000000000000000000000000000000600052601160045260246000fd5b7f4e487b7100000000000000000000000000000000000000000000000000000000600052602260045260246000fd5b7f4e487b7100000000000000000000000000000000000000000000000000000000600052604160045260246000fd5b6000601f19601f8301169050919050565b61227181612103565b811461227c57600080fd5b5056fea26469706673582212207e2475546421381c9b6c399de1749f0fa64d4483da9d3edbda676ea3fbdd6bf264736f6c63430008000033",
  "immutableReferences": {},
  "source": "// SPDX-License-Identifier: MIT\r\npragma solidity ^0.8.0;\r\n\r\ncontract MedicineSupplyChain {\r\n\r\n    // Struct to represent a medicine\r\n    struct Medicine {\r\n        string name;\r\n        uint256 quantity;\r\n        uint256 timestamp;\r\n    }\r\n\r\n    // Arrays to store medicines for each role\r\n    Medicine[] public newMedArr; // Medicines available for purchase by retailers\r\n    Medicine[] public custArr;   // Medicines available for purchase by customers\r\n    Medicine[] public purchasedMedArr; // Medicines purchased by customers\r\n    Medicine[] public reqArr;    // Requested medicines by customers\r\n\r\n    // Events to emit when actions are performed\r\n    event NewMedicineAdded(string name, uint256 quantity, uint256 timestamp);\r\n    event MedicineBoughtByRetailer(string name, uint256 quantity, uint256 timestamp);\r\n    event MedicineBoughtByCustomer(string name, uint256 quantity, uint256 timestamp);\r\n    event MedicineRequested(string name, uint256 quantity, uint256 timestamp);\r\n\r\n    // Function for Manufacturer to add new medicines\r\n    function addNewMed(string memory medName, uint256 medQuant) public {\r\n        bool found = false;\r\n        for (uint256 i = 0; i < newMedArr.length; i++) {\r\n            if (keccak256(abi.encodePacked(newMedArr[i].name)) == keccak256(abi.encodePacked(medName))) {\r\n                newMedArr[i].quantity += medQuant;\r\n                newMedArr[i].timestamp = block.timestamp;\r\n                emit NewMedicineAdded(medName, newMedArr[i].quantity, newMedArr[i].timestamp);\r\n                found = true;\r\n                break;\r\n            }\r\n        }\r\n        if (!found) {\r\n            newMedArr.push(Medicine(medName, medQuant, block.timestamp));\r\n            emit NewMedicineAdded(medName, medQuant, block.timestamp);\r\n        }\r\n    }\r\n\r\n    // Function for Manufacturer and Retailer to view all new medicines\r\n    function getNewMed() public view returns (Medicine[] memory) {\r\n        return newMedArr;\r\n    }\r\n\r\n    function buyNewMed(string memory medName, uint256 medQuant) public {\r\n        bool found = false;\r\n        for (uint256 i = 0; i < newMedArr.length; i++) {\r\n            if (keccak256(abi.encodePacked(newMedArr[i].name)) == keccak256(abi.encodePacked(medName)) && newMedArr[i].quantity >= medQuant) {\r\n                newMedArr[i].quantity -= medQuant;\r\n                newMedArr[i].timestamp = block.timestamp;\r\n                if (newMedArr[i].quantity == 0) {\r\n                    newMedArr[i] = newMedArr[newMedArr.length - 1];\r\n                    newMedArr.pop();\r\n                }\r\n                bool existsInCustArr = false;\r\n                for (uint256 j = 0; j < custArr.length; j++) {\r\n                    if (keccak256(abi.encodePacked(custArr[j].name)) == keccak256(abi.encodePacked(medName))) {\r\n                        custArr[j].quantity += medQuant;\r\n                        custArr[j].timestamp = block.timestamp;\r\n                        existsInCustArr = true;\r\n                        break;\r\n                    }\r\n                }\r\n                if (!existsInCustArr) {\r\n                    custArr.push(Medicine(medName, medQuant, block.timestamp));\r\n                }\r\n                emit MedicineBoughtByRetailer(medName, medQuant, block.timestamp);\r\n                found = true;\r\n                break;\r\n            }\r\n        }\r\n        require(found, \"Medicine not found or insufficient quantity\");\r\n    }\r\n\r\n    // Function for Customer to view all medicines in custArr\r\n    function viewAllMed() public view returns (Medicine[] memory) {\r\n        return custArr;\r\n    }\r\n\r\n    // Function for Customer to buy medicines from custArr\r\n    function buyMed(string memory medName, uint256 medQuant) public {\r\n        bool found = false;\r\n        for (uint256 i = 0; i < custArr.length; i++) {\r\n            if (keccak256(abi.encodePacked(custArr[i].name)) == keccak256(abi.encodePacked(medName)) && custArr[i].quantity >= medQuant) {\r\n                custArr[i].quantity -= medQuant;\r\n                custArr[i].timestamp = block.timestamp;\r\n                if (custArr[i].quantity == 0) {\r\n                    custArr[i] = custArr[custArr.length - 1];\r\n                    custArr.pop();\r\n                }\r\n                purchasedMedArr.push(Medicine(medName, medQuant, block.timestamp));\r\n                emit MedicineBoughtByCustomer(medName, medQuant, block.timestamp);\r\n                found = true;\r\n                break;\r\n            }\r\n        }\r\n        require(found, \"Medicine not found or insufficient quantity\");\r\n    }\r\n\r\n    // Function to request a medicine\r\n    function requestMed(string memory medName, uint256 medQuant) public {\r\n        bool found = false;\r\n        for (uint256 i = 0; i < reqArr.length; i++) {\r\n            if (keccak256(abi.encodePacked(reqArr[i].name)) == keccak256(abi.encodePacked(medName))) {\r\n                reqArr[i].quantity += medQuant;\r\n                reqArr[i].timestamp = block.timestamp;\r\n                emit MedicineRequested(medName, reqArr[i].quantity, reqArr[i].timestamp);\r\n                found = true;\r\n                break;\r\n            }\r\n        }\r\n        if (!found) {\r\n            reqArr.push(Medicine(medName, medQuant, block.timestamp));\r\n            emit MedicineRequested(medName, medQuant, block.timestamp);\r\n        }\r\n    }\r\n\r\n    // Function to view all requested medicines\r\n    function viewRequestedMed() public view returns (Medicine[] memory) {\r\n        return reqArr;\r\n    }\r\n    function viewPurchasedMed() public view returns (Medicine[] memory) {\r\n        return purchasedMedArr;\r\n    }\r\n}\r\n",
  "sourcePath": "D:\\blockchain\\supplychain-medichain\\contracts\\contracts\\SupplyChain.sol",
  "compiler": {
    "name": "solc",
    "version": "0.8.0+commit.c7dfd78e.Emscripten.clang"
  },
  "schemaVersion": "3.4.16",
  "updatedAt": "2024-07-21T10:02:10.489Z",
  "networkType": "ethereum",
  "devdoc": {
    "kind": "dev",
    "methods": {},
    "version": 1
  },
  "userdoc": {
    "kind": "user",
    "methods": {},
    "version": 1
  }
}