{
  "contractName": "MedicineSupplyChain",
  "abi": [
    {
      "anonymous": false,
      "inputs": [
        {
          "indexed": false,
          "internalType": "string",
          "name": "name",
          "type": "string"
        },
        {
          "indexed": false,
          "internalType": "uint256",
          "name": "quantity",
          "type": "uint256"
        },
        {
          "indexed": false,
          "internalType": "uint256",
          "name": "timestamp",
          "type": "uint256"
        }
      ],
      "name": "MedicineBoughtByCustomer",
      "type": "event"
    },
    {
      "anonymous": false,
      "inputs": [
        {
          "indexed": false,
          "internalType": "string",
          "name": "name",
          "type": "string"
        },
        {
          "indexed": false,
          "internalType": "uint256",
          "name": "quantity",
          "type": "uint256"
        },
        {
          "indexed": false,
          "internalType": "uint256",
          "name": "timestamp",
          "type": "uint256"
        }
      ],
      "name": "MedicineBoughtByRetailer",
      "type": "event"
    },
    {
      "anonymous": false,
      "inputs": [
        {
          "indexed": false,
          "internalType": "string",
          "name": "name",
          "type": "string"
        },
        {
          "indexed": false,
          "internalType": "uint256",
          "name": "quantity",
          "type": "uint256"
        },
        {
          "indexed": false,
          "internalType": "uint256",
          "name": "timestamp",
          "type": "uint256"
        }
      ],
      "name": "NewMedicineAdded",
      "type": "event"
    },
    {
      "inputs": [
        {
          "internalType": "uint256",
          "name": "",
          "type": "uint256"
        }
      ],
      "name": "custArr",
      "outputs": [
        {
          "internalType": "string",
          "name": "name",
          "type": "string"
        },
        {
          "internalType": "uint256",
          "name": "quantity",
          "type": "uint256"
        },
        {
          "internalType": "uint256",
          "name": "timestamp",
          "type": "uint256"
        }
      ],
      "stateMutability": "view",
      "type": "function",
      "constant": true
    },
    {
      "inputs": [
        {
          "internalType": "uint256",
          "name": "",
          "type": "uint256"
        }
      ],
      "name": "newMedArr",
      "outputs": [
        {
          "internalType": "string",
          "name": "name",
          "type": "string"
        },
        {
          "internalType": "uint256",
          "name": "quantity",
          "type": "uint256"
        },
        {
          "internalType": "uint256",
          "name": "timestamp",
          "type": "uint256"
        }
      ],
      "stateMutability": "view",
      "type": "function",
      "constant": true
    },
    {
      "inputs": [
        {
          "internalType": "string",
          "name": "medName",
          "type": "string"
        },
        {
          "internalType": "uint256",
          "name": "medQuant",
          "type": "uint256"
        }
      ],
      "name": "addNewMed",
      "outputs": [],
      "stateMutability": "nonpayable",
      "type": "function"
    },
    {
      "inputs": [],
      "name": "getNewMed",
      "outputs": [
        {
          "components": [
            {
              "internalType": "string",
              "name": "name",
              "type": "string"
            },
            {
              "internalType": "uint256",
              "name": "quantity",
              "type": "uint256"
            },
            {
              "internalType": "uint256",
              "name": "timestamp",
              "type": "uint256"
            }
          ],
          "internalType": "struct MedicineSupplyChain.Medicine[]",
          "name": "",
          "type": "tuple[]"
        }
      ],
      "stateMutability": "view",
      "type": "function",
      "constant": true
    },
    {
      "inputs": [
        {
          "internalType": "string",
          "name": "medName",
          "type": "string"
        },
        {
          "internalType": "uint256",
          "name": "medQuant",
          "type": "uint256"
        }
      ],
      "name": "buyNewMed",
      "outputs": [],
      "stateMutability": "nonpayable",
      "type": "function"
    },
    {
      "inputs": [],
      "name": "viewAllMed",
      "outputs": [
        {
          "components": [
            {
              "internalType": "string",
              "name": "name",
              "type": "string"
            },
            {
              "internalType": "uint256",
              "name": "quantity",
              "type": "uint256"
            },
            {
              "internalType": "uint256",
              "name": "timestamp",
              "type": "uint256"
            }
          ],
          "internalType": "struct MedicineSupplyChain.Medicine[]",
          "name": "",
          "type": "tuple[]"
        }
      ],
      "stateMutability": "view",
      "type": "function",
      "constant": true
    },
    {
      "inputs": [
        {
          "internalType": "string",
          "name": "medName",
          "type": "string"
        },
        {
          "internalType": "uint256",
          "name": "medQuant",
          "type": "uint256"
        }
      ],
      "name": "buyMed",
      "outputs": [],
      "stateMutability": "nonpayable",
      "type": "function"
    }
  ],
  "bytecode": "0x608060405234801561001057600080fd5b50611aad806100206000396000f3fe608060405234801561001057600080fd5b506004361061007d5760003560e01c8063d94cfc041161005b578063d94cfc04146100ee578063e172cf0314610120578063ee7556101461013c578063f3bb64391461015a5761007d565b80635e4f2d1d14610082578063664ff29c146100b4578063a4cc3c5d146100d2575b600080fd5b61009c60048036038101906100979190611434565b610176565b6040516100ab9392919061172c565b60405180910390f35b6100bc610238565b6040516100c9919061170a565b60405180910390f35b6100ec60048036038101906100e791906113e0565b61033d565b005b61010860048036038101906101039190611434565b61072e565b6040516101179392919061172c565b60405180910390f35b61013a600480360381019061013591906113e0565b6107f0565b005b610144610de0565b604051610151919061170a565b60405180910390f35b610174600480360381019061016f91906113e0565b610ee5565b005b6000818154811061018657600080fd5b90600052602060002090600302016000915090508060000180546101a990611947565b80601f01602080910402602001604051908101604052809291908181526020018280546101d590611947565b80156102225780601f106101f757610100808354040283529160200191610222565b820191906000526020600020905b81548152906001019060200180831161020557829003601f168201915b5050505050908060010154908060020154905083565b60606001805480602002602001604051908101604052809291908181526020016000905b82821015610334578382906000526020600020906003020160405180606001604052908160008201805461028f90611947565b80601f01602080910402602001604051908101604052809291908181526020018280546102bb90611947565b80156103085780601f106102dd57610100808354040283529160200191610308565b820191906000526020600020905b8154815290600101906020018083116102eb57829003601f168201915b50505050508152602001600182015481526020016002820154815250508152602001906001019061025c565b50505050905090565b6000805b6001805490508110156106e8578360405160200161035f91906116dc565b60405160208183030381529060405280519060200120600182815481106103af577f4e487b7100000000000000000000000000000000000000000000000000000000600052603260045260246000fd5b90600052602060002090600302016000016040516020016103d091906116f3565b6040516020818303038152906040528051906020012014801561043e57508260018281548110610429577f4e487b7100000000000000000000000000000000000000000000000000000000600052603260045260246000fd5b90600052602060002090600302016001015410155b156106d557826001828154811061047e577f4e487b7100000000000000000000000000000000000000000000000000000000600052603260045260246000fd5b9060005260206000209060030201600101600082825461049e91906118c7565b9250508190555042600182815481106104e0577f4e487b7100000000000000000000000000000000000000000000000000000000600052603260045260246000fd5b906000526020600020906003020160020181905550600060018281548110610531577f4e487b7100000000000000000000000000000000000000000000000000000000600052603260045260246000fd5b906000526020600020906003020160010154141561069157600180808054905061055b91906118c7565b81548110610592577f4e487b7100000000000000000000000000000000000000000000000000000000600052603260045260246000fd5b9060005260206000209060030201600182815481106105da577f4e487b7100000000000000000000000000000000000000000000000000000000600052603260045260246000fd5b906000526020600020906003020160008201816000019080546105fc90611947565b6106079291906111f3565b5060018201548160010155600282015481600201559050506001805480610657577f4e487b7100000000000000000000000000000000000000000000000000000000600052603160045260246000fd5b60019003818190600052602060002090600302016000808201600061067c9190611280565b60018201600090556002820160009055505090555b7f05256d8a294e78285b2c9c9c57a182083245c2730d2bfda374f864ee7e71cd438484426040516106c49392919061172c565b60405180910390a1600191506106e8565b80806106e090611979565b915050610341565b5080610729576040517f08c379a00000000000000000000000000000000000000000000000000000000081526004016107209061176a565b60405180910390fd5b505050565b6001818154811061073e57600080fd5b906000526020600020906003020160009150905080600001805461076190611947565b80601f016020809104026020016040519081016040528092919081815260200182805461078d90611947565b80156107da5780601f106107af576101008083540402835291602001916107da565b820191906000526020600020905b8154815290600101906020018083116107bd57829003601f168201915b5050505050908060010154908060020154905083565b6000805b600080549050811015610d9a578360405160200161081291906116dc565b6040516020818303038152906040528051906020012060008281548110610862577f4e487b7100000000000000000000000000000000000000000000000000000000600052603260045260246000fd5b906000526020600020906003020160000160405160200161088391906116f3565b604051602081830303815290604052805190602001201480156108f1575082600082815481106108dc577f4e487b7100000000000000000000000000000000000000000000000000000000600052603260045260246000fd5b90600052602060002090600302016001015410155b15610d87578260008281548110610931577f4e487b7100000000000000000000000000000000000000000000000000000000600052603260045260246000fd5b9060005260206000209060030201600101600082825461095191906118c7565b925050819055504260008281548110610993577f4e487b7100000000000000000000000000000000000000000000000000000000600052603260045260246000fd5b90600052602060002090600302016002018190555060008082815481106109e3577f4e487b7100000000000000000000000000000000000000000000000000000000600052603260045260246000fd5b9060005260206000209060030201600101541415610b455760006001600080549050610a0f91906118c7565b81548110610a46577f4e487b7100000000000000000000000000000000000000000000000000000000600052603260045260246000fd5b906000526020600020906003020160008281548110610a8e577f4e487b7100000000000000000000000000000000000000000000000000000000600052603260045260246000fd5b90600052602060002090600302016000820181600001908054610ab090611947565b610abb9291906111f3565b5060018201548160010155600282015481600201559050506000805480610b0b577f4e487b7100000000000000000000000000000000000000000000000000000000600052603160045260246000fd5b600190038181906000526020600020906003020160008082016000610b309190611280565b60018201600090556002820160009055505090555b6000805b600180549050811015610cc25785604051602001610b6791906116dc565b6040516020818303038152906040528051906020012060018281548110610bb7577f4e487b7100000000000000000000000000000000000000000000000000000000600052603260045260246000fd5b9060005260206000209060030201600001604051602001610bd891906116f3565b604051602081830303815290604052805190602001201415610caf578460018281548110610c2f577f4e487b7100000000000000000000000000000000000000000000000000000000600052603260045260246000fd5b90600052602060002090600302016001016000828254610c4f9190611871565b925050819055504260018281548110610c91577f4e487b7100000000000000000000000000000000000000000000000000000000600052603260045260246000fd5b90600052602060002090600302016002018190555060019150610cc2565b8080610cba90611979565b915050610b49565b5080610d4257600160405180606001604052808781526020018681526020014281525090806001815401808255809150506001900390600052602060002090600302016000909190919091506000820151816000019080519060200190610d2a9291906112c0565b50602082015181600101556040820151816002015550505b7faa533db7de572c0c8c8d5f424ba367ba73568f7267fc53f787014106cc956470858542604051610d759392919061172c565b60405180910390a16001925050610d9a565b8080610d9290611979565b9150506107f4565b5080610ddb576040517f08c379a0000000000000000000000000000000000000000000000000000000008152600401610dd29061176a565b60405180910390fd5b505050565b60606000805480602002602001604051908101604052809291908181526020016000905b82821015610edc5783829060005260206000209060030201604051806060016040529081600082018054610e3790611947565b80601f0160208091040260200160405190810160405280929190818152602001828054610e6390611947565b8015610eb05780601f10610e8557610100808354040283529160200191610eb0565b820191906000526020600020905b815481529060010190602001808311610e9357829003601f168201915b505050505081526020016001820154815260200160028201548152505081526020019060010190610e04565b50505050905090565b6000805b6000805490508110156111335783604051602001610f0791906116dc565b6040516020818303038152906040528051906020012060008281548110610f57577f4e487b7100000000000000000000000000000000000000000000000000000000600052603260045260246000fd5b9060005260206000209060030201600001604051602001610f7891906116f3565b604051602081830303815290604052805190602001201415611120578260008281548110610fcf577f4e487b7100000000000000000000000000000000000000000000000000000000600052603260045260246000fd5b90600052602060002090600302016001016000828254610fef9190611871565b925050819055504260008281548110611031577f4e487b7100000000000000000000000000000000000000000000000000000000600052603260045260246000fd5b9060005260206000209060030201600201819055507f90524842f2b2364f914082b66f222c30470c78ffc292c8afaa91c836db20f78184600083815481106110a2577f4e487b7100000000000000000000000000000000000000000000000000000000600052603260045260246000fd5b906000526020600020906003020160010154600084815481106110ee577f4e487b7100000000000000000000000000000000000000000000000000000000600052603260045260246000fd5b90600052602060002090600302016002015460405161110f9392919061172c565b60405180910390a160019150611133565b808061112b90611979565b915050610ee9565b50806111ee5760006040518060600160405280858152602001848152602001428152509080600181540180825580915050600190039060005260206000209060030201600090919091909150600082015181600001908051906020019061119b9291906112c0565b50602082015181600101556040820151816002015550507f90524842f2b2364f914082b66f222c30470c78ffc292c8afaa91c836db20f7818383426040516111e59392919061172c565b60405180910390a15b505050565b8280546111ff90611947565b90600052602060002090601f016020900481019282611221576000855561126f565b82601f10611232578054855561126f565b8280016001018555821561126f57600052602060002091601f016020900482015b8281111561126e578254825591600101919060010190611253565b5b50905061127c9190611346565b5090565b50805461128c90611947565b6000825580601f1061129e57506112bd565b601f0160209004906000526020600020908101906112bc9190611346565b5b50565b8280546112cc90611947565b90600052602060002090601f0160209004810192826112ee5760008555611335565b82601f1061130757805160ff1916838001178555611335565b82800160010185558215611335579182015b82811115611334578251825591602001919060010190611319565b5b5090506113429190611346565b5090565b5b8082111561135f576000816000905550600101611347565b5090565b6000611376611371846117bb565b61178a565b90508281526020810184848401111561138e57600080fd5b611399848285611905565b509392505050565b600082601f8301126113b257600080fd5b81356113c2848260208601611363565b91505092915050565b6000813590506113da81611a60565b92915050565b600080604083850312156113f357600080fd5b600083013567ffffffffffffffff81111561140d57600080fd5b611419858286016113a1565b925050602061142a858286016113cb565b9150509250929050565b60006020828403121561144657600080fd5b6000611454848285016113cb565b91505092915050565b6000611469838361166e565b905092915050565b600061147c82611810565b6114868185611833565b935083602082028501611498856117eb565b8060005b858110156114d457848403895281516114b5858261145d565b94506114c083611826565b925060208a0199505060018101905061149c565b50829750879550505050505092915050565b60006114f18261181b565b6114fb8185611844565b935061150b818560208601611914565b61151481611a4f565b840191505092915050565b600061152a8261181b565b6115348185611855565b9350611544818560208601611914565b61154d81611a4f565b840191505092915050565b60006115638261181b565b61156d8185611866565b935061157d818560208601611914565b80840191505092915050565b6000815461159681611947565b6115a08186611866565b945060018216600081146115bb57600181146115cc576115ff565b60ff198316865281860193506115ff565b6115d5856117fb565b60005b838110156115f7578154818901526001820191506020810190506115d8565b838801955050505b50505092915050565b6000611615602b83611855565b91507f4d65646963696e65206e6f7420666f756e64206f7220696e737566666963696560008301527f6e74207175616e746974790000000000000000000000000000000000000000006020830152604082019050919050565b6000606083016000830151848203600086015261168b82826114e6565b91505060208301516116a060208601826116be565b5060408301516116b360408601826116be565b508091505092915050565b6116c7816118fb565b82525050565b6116d6816118fb565b82525050565b60006116e88284611558565b915081905092915050565b60006116ff8284611589565b915081905092915050565b600060208201905081810360008301526117248184611471565b905092915050565b60006060820190508181036000830152611746818661151f565b905061175560208301856116cd565b61176260408301846116cd565b949350505050565b6000602082019050818103600083015261178381611608565b9050919050565b6000604051905081810181811067ffffffffffffffff821117156117b1576117b0611a20565b5b8060405250919050565b600067ffffffffffffffff8211156117d6576117d5611a20565b5b601f19601f8301169050602081019050919050565b6000819050602082019050919050565b60008190508160005260206000209050919050565b600081519050919050565b600081519050919050565b6000602082019050919050565b600082825260208201905092915050565b600082825260208201905092915050565b600082825260208201905092915050565b600081905092915050565b600061187c826118fb565b9150611887836118fb565b9250827fffffffffffffffffffffffffffffffffffffffffffffffffffffffffffffffff038211156118bc576118bb6119c2565b5b828201905092915050565b60006118d2826118fb565b91506118dd836118fb565b9250828210156118f0576118ef6119c2565b5b828203905092915050565b6000819050919050565b82818337600083830152505050565b60005b83811015611932578082015181840152602081019050611917565b83811115611941576000848401525b50505050565b6000600282049050600182168061195f57607f821691505b60208210811415611973576119726119f1565b5b50919050565b6000611984826118fb565b91507fffffffffffffffffffffffffffffffffffffffffffffffffffffffffffffffff8214156119b7576119b66119c2565b5b600182019050919050565b7f4e487b7100000000000000000000000000000000000000000000000000000000600052601160045260246000fd5b7f4e487b7100000000000000000000000000000000000000000000000000000000600052602260045260246000fd5b7f4e487b7100000000000000000000000000000000000000000000000000000000600052604160045260246000fd5b6000601f19601f8301169050919050565b611a69816118fb565b8114611a7457600080fd5b5056fea264697066735822122044321d8b1f780b8347c9e2579e2cf2f90a6e22d150701219b929c993c01ad4f464736f6c63430008000033",
  "immutableReferences": {},
  "source": "// SPDX-License-Identifier: MIT\r\npragma solidity ^0.8.0;\r\n\r\ncontract MedicineSupplyChain {\r\n\r\n    // Struct to represent a medicine\r\n    struct Medicine {\r\n        string name;\r\n        uint256 quantity;\r\n        uint256 timestamp;\r\n    }\r\n\r\n    // Arrays to store medicines for each role\r\n    Medicine[] public newMedArr; // Medicines available for purchase by retailers\r\n    Medicine[] public custArr;   // Medicines available for purchase by customers\r\n\r\n    // Events to emit when actions are performed\r\n    event NewMedicineAdded(string name, uint256 quantity,uint256 timestamp);\r\n    event MedicineBoughtByRetailer(string name, uint256 quantity,uint256 timestamp);\r\n    event MedicineBoughtByCustomer(string name, uint256 quantity,uint256 timestamp);\r\n\r\n    // Function for Manufacturer to add new medicines\r\n    function addNewMed(string memory medName, uint256 medQuant) public {\r\n        bool found = false;\r\n        for (uint256 i = 0; i < newMedArr.length; i++) {\r\n            if (keccak256(abi.encodePacked(newMedArr[i].name)) == keccak256(abi.encodePacked(medName))) {\r\n                newMedArr[i].quantity += medQuant;\r\n                newMedArr[i].timestamp = block.timestamp;\r\n                emit NewMedicineAdded(medName, newMedArr[i].quantity, newMedArr[i].timestamp);\r\n                found = true;\r\n                break;\r\n            }\r\n        }\r\n        if (!found) {\r\n            newMedArr.push(Medicine(medName, medQuant,block.timestamp));\r\n            emit NewMedicineAdded(medName, medQuant,block.timestamp);\r\n        }\r\n    }\r\n\r\n\r\n    // Function for Manufacturer and Retailer to view all new medicines\r\n    function getNewMed() public view returns (Medicine[] memory) {\r\n        return newMedArr;\r\n    }\r\n\r\n    function buyNewMed(string memory medName, uint256 medQuant) public {\r\n        bool found = false;\r\n        for (uint256 i = 0; i < newMedArr.length; i++) {\r\n            if (keccak256(abi.encodePacked(newMedArr[i].name)) == keccak256(abi.encodePacked(medName)) && newMedArr[i].quantity >= medQuant) {\r\n                newMedArr[i].quantity -= medQuant;\r\n                newMedArr[i].timestamp = block.timestamp;\r\n                if (newMedArr[i].quantity == 0) {\r\n                    newMedArr[i] = newMedArr[newMedArr.length - 1];\r\n                    newMedArr.pop();\r\n                }\r\n                bool existsInCustArr = false;\r\n                for (uint256 j = 0; j < custArr.length; j++) {\r\n                    if (keccak256(abi.encodePacked(custArr[j].name)) == keccak256(abi.encodePacked(medName))) {\r\n                        custArr[j].quantity += medQuant;\r\n                        custArr[j].timestamp = block.timestamp;\r\n                        existsInCustArr = true;\r\n                        break;\r\n                    }\r\n                }\r\n                if (!existsInCustArr) {\r\n                    custArr.push(Medicine(medName, medQuant, block.timestamp));\r\n                }\r\n                emit MedicineBoughtByRetailer(medName, medQuant, block.timestamp);\r\n                found = true;\r\n                break;\r\n            }\r\n        }\r\n        require(found, \"Medicine not found or insufficient quantity\");\r\n    }\r\n\r\n\r\n    // Function for Customer to view all medicines in custArr\r\n    function viewAllMed() public view returns (Medicine[] memory) {\r\n        return custArr;\r\n    }\r\n\r\n    // Function for Customer to buy medicines from custArr\r\n    function buyMed(string memory medName, uint256 medQuant) public {\r\n        bool found = false;\r\n        for (uint256 i = 0; i < custArr.length; i++) {\r\n            if (keccak256(abi.encodePacked(custArr[i].name)) == keccak256(abi.encodePacked(medName)) && custArr[i].quantity >= medQuant) {\r\n                custArr[i].quantity -= medQuant;\r\n                custArr[i].timestamp = block.timestamp;\r\n                if (custArr[i].quantity == 0) {\r\n                    custArr[i] = custArr[custArr.length - 1];\r\n                    custArr.pop();\r\n                }\r\n                emit MedicineBoughtByCustomer(medName, medQuant,block.timestamp);\r\n                found = true;\r\n                break;\r\n            }\r\n        }\r\n        require(found, \"Medicine not found or insufficient quantity\");\r\n    }\r\n}\r\n",
  "sourcePath": "D:\\blockchain\\supplychain-medichain\\contracts\\contracts\\SupplyChain.sol",
  "compiler": {
    "name": "solc",
    "version": "0.8.0+commit.c7dfd78e.Emscripten.clang"
  },
  "schemaVersion": "3.4.16",
  "updatedAt": "2024-07-11T04:16:51.212Z",
  "networkType": "ethereum",
  "devdoc": {
    "kind": "dev",
    "methods": {},
    "version": 1
  },
  "userdoc": {
    "kind": "user",
    "methods": {},
    "version": 1
  }
}